:0C00760090009DE4F090002D120B819092
:0E00820000657403F09000667401F090002D8C
:0300900002036503
:0E009300AA83E582900000F0A3EAF09000003E
:0E00A100E0FAA3E0FB8A828B83120BF9AA829D
:0E00AF00AB839000027441F09000037463F084
:0D00BD009000047463F09000057465F090ED
:0C00CA000006746CF09000077465F09064
:0C00D60000087472F0900009746FF09044
:0C00E200000A746DF090000B7465F09043
:0C00EE00000C7474F090000D7465F0902C
:0C00FA00000E7472F090000F7420F09063
:0C01060000107472F09000117465F0900D
:0C01120000127461F09000137464F0900F
:0C011E0000147420F09000157466F0903E
:0C012A0000167461F09000177469F090EA
:0C0136000018746CF09000197465F090D3
:0C014200001A7464F090001B7421F0900F
:0C014E00001C740AF090001D740DF0906D
:0E015A00001EE4F0BA0010BB010D900002750B
:09016800F000123E8375820022B2
:030171008A82225D
:0E017400AA83E582900025F0A3EAF090002512
:0E018200E0FAA3E0FB90001FE0FCA3E0FDA369
:0E019000E0FE900022E0FFA3E0F8A3E0F9906B
:0E019E0000A2ECF0A3EDF0A3EEF09000A5EFB0
:0E01AC00F0A3E8F0A3E9F08A828B83120C9294
:0E01BA00AA82AB839000277441F09000287455
:0E01C80063F09000297463F090002A7465F0D3
:0D01D60090002B746CF090002C7465F0907C
:0C01E300002D7472F090002E746FF090EC
:0C01EF00002F746DF09000307465F090EB
:0C01FB0000317474F09000327465F090D4
:0C02070000337472F09000347420F0900A
:0C02130000357472F09000367465F090B5
:0C021F0000377461F09000387464F090B7
:0C022B0000397420F090003A7466F090E6
:0C023700003B7461F090003C7469F09092
:0C024300003D746CF090003E7465F0907B
:0C024F00003F7464F09000407421F090B7
:0C025B000041740AF0900042740DF09015
:0E0267000043E4F0BA000CBB010990002775BB
:05027500F000023E83D1
:01027A002261
:0E027B00AA83E582900045F0A3EAF0900045CA
:0E028900E0FAA3E0FB900044E0FC90009DF042
:0E0297008A828B83120B81AA82AB8390004770
:0E02A5007441F09000487463F0900049746357
:0E02B300F090004A7465F090004B746CF0906F
:0C02C100004C7465F090004D7472F090D9
:0C02CD00004E746FF090004F746DF090C4
:0C02D90000507465F09000517474F090B7
:0C02E50000527465F09000537472F090A9
:0C02F10000547420F09000557477F090D9
:0C02FD0000567472F09000577469F09085
:0C03090000587474F09000597465F09076
:0C031500005A7420F090005B7466F090B9
:0C032100005C7461F090005D7469F09065
:0C032D00005E746CF090005F7465F0904E
:0C03390000607464F09000617421F0908A
:0C0345000062740AF0900063740DF090E8
:0E0351000064E4F0BA000CBB0109900047758F
:05035F00F000023E83E6
:010364002276
:0E036500AA83E582900067F0A3EAF09000679B
:0E037300E0FAA3E0FB8A828B83120093AA8239
:0E038100900066E0FB601A900065E0FB8BF0D8
:06038F0005F0740180027C
:0203950025E061
:0B039700D5F0FBFB9000694AF08019D4
:0D03A200900065E0FB8BF005F07401800217
:0203AF0025E047
:0A03B100D5F0FBF4FB9000695AF050
:0E03BB00900067E0FAA3E0FB900069E0FC9080
:0A03C9000044F08A828B8302027B5D
:0E03D300AAF0AB83E582900070F0A3EBF0A3DC
:0E03E100EAF0900070E0FAA3E0FBA3E0FC90CD
:0E03EF00001EC002C003C004120093AD82D0F5
:0D03FD0004D003D0028A828B838CF0ED12B5
:0E040A0040A290006AE0FAA3E0FBA3E0FC90A1
:0E041800001FC002C003C004120093AD82D0CA
:0D04260004D003D0028A828B838CF0ED128B
:0E04330040A290006DE0FAA3E0FBA3E0FC9075
:0E0441000020C002C003C004120093AD82D0A0
:0D044F0004D003D0028A828B838CF0ED0272
:02045C0040A2BC
:0C045E00900044741FF090003802027BF4
:0B046A00900044E4F090002E02027BA2
:0C047500E582900073F0900073E0FA90B4
:090481000044F090003102027BFE
:0C048A00E582900074F0900074E0FA909D
:090496000044F090002C02027BEE
:08049F0090001F7475F0A374B6
:0904A70000F0A3E4F090002274BF
:0A04B00077F0A37400F0A3E4F090CD
:0E04BA000032120174900077E0FAA3E0FB8A92
:0E04C80004C4CCC4540F6CCC540FCC6CCC309C
:0404D600E30244F009
:0E04DA00FD90007BECF0900077740F5AF0A3B9
:0E04E800E4F0900077E0FAA3E08A037A009037
:0E04F6000075E0FCA3E0FDEC4202ED42039035
:0E0504000079EAF0A3EBF090007BE0FC6009C8
:09051200900079EAF0A374FFF0F7
:0C051B00900079E0FAA3E08A82F58322C8
:0805270090001F747CF0A37426
:09052F0000F0A3E4F09000227436
:0A0538007EF0A37400F0A3E4F0903D
:0E054200003412017490007EE0FAA3E0FB8A00
:0E05500004C4CCC4540F6CCC540FCC6CCC3013
:04055E00E30244F080
:0E056200FD900082ECF090007E740F5AF0A322
:0E057000E4F090007EE0FAA3E08A037A0090A7
:0E057E00007CE0FCA3E0FDEC4202ED420390A5
:0E058C000080EAF0A3EBF0900082E0FC600932
:09059A00900080EAF0A374FFF068
:0C05A300900080E0FAA3E08A82F5832239
:0805AF0090001F7483F0A37497
:0905B70000F0A3E4F090002274AE
:0A05C00085F0A37400F0A3E4F090AE
:0E05CA000036120174900085E0FAA3E0FB8A6F
:0E05D80004C4CCC4540F6CCC540FCC6CCC308B
:0405E600E30244F0F8
:0E05EA00FD900089ECF0900085740F5AF0A38C
:0E05F800E4F0900085E0FAA3E08A037A009018
:0E0606000083E0FCA3E0FDEC4202ED42039015
:0E0614000087EAF0A3EBF0900089E0FC60099B
:09062200900087EAF0A374FFF0D8
:0C062B00900087E0FAA3E08A82F58322A9
:0E06370090008AE4F0A3F090008CE4F0A3F0B1
:0E06450090008EE4F0A3F090000C1229FA7AD7
:03065300647B00C5
:0E065600C002C00312049FAC82AD83D003D05B
:0E0664000290008AE0FEA3E0FF90008AEC2ED8
:0E067200F0ED3FA3F0C002C003120527AC82DA
:0E068000AD83D003D00290008CE0FEA3E0FF1B
:0E068E0090008CEC2EF0ED3FA3F0C002C003F4
:0E069C001205AFAC82AD83D003D00290008E69
:0E06AA00E0FEA3E0FF90008EEC2EF0ED3FA3EB
:0606B800F01ABAFF011B5D
:0D06BE00EA4B709490008AE0FAA3E0FB90F4
:0D06CB00039A7464F0E4A3F08A828B83121A
:0E06D8004271E5828583F090008AF0A3E5F080
:0E06E600F090008CE0FAA3E0FB90039A74649D
:0E06F400F0E4A3F08A828B83124271E58285C6
:0E07020083F090008CF0A3E5F0F090008EE004
:0E071000FAA3E0FB90039A7464F0E4A3F08A6D
:0E071E00828B83124271E5828583F090008EFB
:0E072C00F0A3E5F0F090008AE0FAA3E0FBEA0B
:0A073A00F4FAEBF4FB0ABA00010B1D
:0E07440090039A7404F0E4A3F08A828B83126F
:0E0752004271E5828583F090008AF0A3E5F005
:0E076000F090008CE0FAA3E0FBEAF4FAEBF470
:06076E00FB0ABA00010BBA
:0E07740090039A7404F0E4A3F08A828B83123F
:0E0782004271E5828583F090008CF0A3E5F0D3
:0E079000F090008EE0FAA3E024FFFBEAF4FAFA
:08079E00EBF4FB0ABA00010BA9
:0E07A60090039A7404F0E4A3F08A828B83120D
:0E07B4004271E5828583F090008EF0A3E5F09F
:0E07C200F090008AE0FAA3E0FB900044EAF019
:0E07D00090001E12027B90008CE0FAA3E0FB6A
:0C07DE00900044EAF090001F12027B9093
:0D07EA00008EE0FAA3E0FB900044EAF090DE
:0507F700002002027B5E
:0607FC00E582900090F080
:0C0802003099FD900090E0F599C2992219
:05080E0010980280FBC0
:05081300AA998A82226F
:060818009000927461F0F3
:0E081E00900092E0FAF582C002124085E58259
:07082C00D002600DBA31009B
:0A0833004008EA24C940030208FA55
:0E083D0012080EAB82900092EBF07C00C0031C
:0A084B00C00474A8C0E0744CC0E0C3
:0E0855007480C0E01243D0E58124FBF58112CF
:08086300080EE582900091F0FF
:0A086B00900091E0FBBB0D02804EEF
:0C087500BB08407C00C003C00474A8C095
:0C088100E0744CC0E07480C0E01243D072
:0E088D00E58124FBF58112080EAB82900092EB
:0C089B00EBF07C00C003C00474A8C0E0B7
:0C08A700744CC0E07480C0E01243D0E547
:0508B3008124FBF5812A
:0B08B80012080EE582900091F080A86D
:0E08C300900092E0FBF582C003124085E582B2
:0708D100D003600DBB3100F4
:0A08D8004008EB24C9400302081E8B
:0A08E20074ABC0E0744CC0E07480F9
:0E08EC00C0E01243D015811581158102081E4F
:0308FA008A8222CD
:0A08FD0074D0C0E0744CC0E07480B9
:0C090700C0E01243D015811581158174E9
:0A091300D5C0E0744CC0E07480C051
:0B091D00E01243D015811581158122E6
:0E092800AAF0AB83E582900093F0A3EBF0A35E
:0E093600EAF01208FD900093E0C0E0A3E0C0DC
:0E094400E0A3E0C0E01243D0158115811581BB
:0A09520074DCC0E0744CC0E0748057
:0B095C00C0E01243D015811581158109
:0909670012080EAA82BA0DF82252
:0C097000D295D294120D6AC295020D6A55
:0C097C00C295D294120D6AD295020D6A49
:0D098800C295120D6AD294120D6AC294221B
:0D099500D295120D6AD294120D6AC29422FE
:0309A200120970C7
:0D09A5007582A01209B5AA82BA010280F382
:0309B20002097CBB
:0C09B500E582900096F0C2947A007B006E
:0E09C100C3EA9408EB64809480503FC002C0EB
:0E09CF0003120D6AD003D002900096E0FC30B7
:0609DD00E7047C0180022A
:0209E3007C0096
:0E09E500EC24FF9295D294C002C003120D6A5A
:0E09F300D003D002C294900096E025E0FC9064
:0A0A01000096F00ABA00B90B80B6A7
:0E0A0B00E4A29533FAD294C002120D6AD00212
:050A1900C2948A822254
:0B0A1E00900097E4F0D2957A007B0076
:0E0A2900C3EA9408EB648094805036C294C0F7
:0D0A370002C003120D6AD003D002D29490C9
:0E0A44000097E025E0FC900097F030950A90B6
:090A52000097E0FC4401F080086B
:080A5B00900097E0FC54FEF04E
:070A63000ABA00C20B80BFBC
:090A6A00C294900097E0F582228D
:0E0A7300AA83E582900099F0A3EAF090009922
:0E0A8100E0FAA3E0FB7C0074075BFDA2E7CC6B
:0B0A8F0033CC33CC540130E00244FEB5
:0E0A9A00FD4304A07B00C002C004120970D00E
:0E0AA80004D0028C82C0021209B5AB82D002CB
:070AB600BB010490010022C6
:0E0ABD008A821209B5AA82BA010490010022B1
:0E0ACB00900098E0FAF5821209B5AA82BA01ED
:050AD900049001002261
:0A0ADE0012097C1209A29002002206
:0E0AE800AA83E58290009BF0A3EAF090009BA9
:0E0AF600E0FAA3E0FB7C0074075BFDA2E7CCF6
:0B0B040033CC33CC540130E00244FE3F
:0E0B0F00FD74A04CFE8D074304A17B00C002C4
:0E0B1D00C004C006120970D006D004D0028EAB
:0E0B2B0082C002C0041209B5AB82D004D00211
:070B3900BB01049001002242
:0E0B40008A82C0041209B5AA82D004BA010448
:040B4E0090010022F0
:0E0B5200C004120970D0048C821209B5AA8268
:070B6000BA0104900100221C
:0E0B6700120A1EAA82C002120995D002C00214
:0C0B750012097CD0027B008A828B832254
:0E0B8100AA83E58290009EF0A3EAF090009E09
:0E0B8F00E0FAA3E0FB7C0074075BFDA2E7CC5C
:0B0B9D0033CC33CC540130E00244FEA6
:0E0BA800FD43043A7B00C002C004120970D065
:0E0BB60004D0028C82C0021209B5AB82D002BC
:070BC400BB010490010022B7
:0E0BCB008A821209B5AA82BA010490010022A2
:0E0BD90090009DE0FAF5821209B5AA82BA01D9
:050BE700049001002252
:0D0BEC0012097C9000051229FA90020022E7
:0E0BF900AA83E5829000A0F0A3EAF09000A08D
:0E0C0700E0FAA3E0FB7C0074075BFDA2E7CCE3
:0B0C150033CC33CC540130E00244FE2D
:0E0C2000FD743A4CFE8D0743043B7B00C0027E
:0E0C2E00C004C006120970D006D004D0028E99
:0E0C3C0082C002C0041209B5AB82D004D002FF
:070C4A00BB01049001002230
:0E0C51008A82C0041209B5AA82D004BA010436
:040C5F0090010022DE
:0E0C6300C004120970D0048C821209B5AA8256
:070C7100BA0104900100220A
:0E0C7800120A1EAA82C002120995D002C00202
:0C0C860012097CD0027B008A828B832242
:0E0C9200AA83E5829000A8F0A3EAF09000A8E3
:0E0CA000E0FAA3E0FB7C0074075BFDA2E7CC4A
:0B0CAE0033CC33CC540130E00244FE94
:0E0CB900FD743A4CFE8D0743043B7B00C002E5
:0E0CC700C004C006120970D006D004D0028E00
:0E0CD50082C002C0041209B5AB82D004D00266
:070CE300BB01049001002297
:0E0CEA008A82C0041209B5AA82D004BA01049D
:040CF8009001002245
:0E0CFC00C004120970D0048C821209B5AA82BD
:070D0A00BA01049001002270
:0E0D11009000A2E0FAA3E0FBA3E0FCC002C049
:0E0D1F0003C004120A1EAD82D004D003D0021D
:0E0D2D008A828B838CF0ED1240A2120988900E
:0E0D3B0000A5E0FAA3E0FBA3E0FCC002C003A9
:0E0D4900C004120A1EAD82D004D003D0028A6C
:0D0D5700828B838CF0ED1240A212099512E0
:060D6400097C9000002252
:040D6A000000002263
:034CA80025630081
:0E4CAB000A0D506C6561736520656E7465724C
:0E4CB90020612076616C69642063686F696316
:094CC7006520312D362E0A0D0086
:054CD0001B5B324A00ED
:074CD5001B5B303B3048007F
:0E4CDC00507265737320656E74657220746F7C
:0B4CEA0020717569742E2E2E0A0D003B
:0A0D6E00438920758DFA4388402266
:060D7800439850D29922BD
:0A005F0090024374E1F0A374ACF0CA
:0E0D7E00C293D291D29090000A1229FA758287
:0B0D8C0000120E43758201120E43900E
:0E0D970000B2E4F09000B3743FF075820012D9
:080DA5000E6D9000B2E4F09025
:0C0DAD0000B3743FF0758201120E6D90CF
:0E0DB90000B2E4F09000B374C0F07582001236
:080DC7000E6D9000B2E4F09003
:0C0DCF0000B374C0F0758201120E6D02BA
:020DDB000E9A6E
:0E0DDD00AA83E5829000ACF0A3EAF09000AC8F
:0E0DEB00E0FAA3E0FB4A6006C290D2918004B9
:040DF900C291D29041
:0E0DFD009000AAE0FAA3E0FB4A6004D29380C3
:010E0B0002E4
:020E0C00C2938F
:070E0E0090F100E0F58222E3
:0E0E1500E5829000B0F09000B0E0FA6006C2F6
:050E230090D291800453
:040E2800C291D29011
:0B0E2C009000AEE0FA6004D293800258
:020E3700C29364
:0A0E39009000AFE0FA90F000F02204
:0B0E4300E5829000B1F09000B1E0FAF1
:0E0E4E008A037C009000AAE4F0A3F08B828C53
:0E0E5C0083C002120DDDE582D00254906002C8
:020E6A0080E224
:010E6C002263
:0E0E6D00E5829000B4F09000B4E0FAF582C087
:0C0E7B0002120E43D0029000B2E0FB9087
:0A0E870000B3E0FC9000AEEBF09029
:090E910000AFECF08A82020E159C
:020E9A007A00DC
:030E9C00BA080091
:0E0E9F00504F9000B2E4F09000B37440F07534
:0E0EAD008200C002120E6DD00274075A44B8C3
:0E0EBB00FB9000B2E4F09000B3EBF075820003
:090EC900C002120E6DD0027B4044
:0E0ED2009000B27401F09000B3E4F07582005D
:0E0EE000C002C003120E6DD003D002DBE50A83
:020EEE0080ACD6
:020EF0007A0086
:030EF200BA08003B
:0E0EF500504F9000B2E4F09000B37440F075DE
:0E0F03008201C002120E6DD00274075A44B86B
:0E0F1100FB9000B2E4F09000B3EBF0758201AB
:090F1F00C002120E6DD0027B40ED
:0E0F28009000B27401F09000B3E4F075820105
:0E0F3600C002C003120E6DD003D002DBE50A2C
:020F440080AC7F
:010F46002288
:020F47007A002E
:030F4900BA0800E3
:0E0F4C0050509000B2E4F09000B37440F07585
:0E0F5A008200C002120E6DD00274075A44B815
:0E0F6800FB9000B2E4F09000B3EBF075820055
:090F7600C002120E6DD0027B4096
:0E0F7F009000B27401F09000B374FFF0758220
:0E0F8D0000C002C003120E6DD003D002DBE4E0
:030F9B000A80AB1E
:020F9E007A00D7
:030FA000BA08008C
:0E0FA30050509000B2E4F09000B37440F0752E
:0E0FB1008201C002120E6DD00274075A44B8BD
:0E0FBF00FB9000B2E4F09000B3EBF0758201FD
:090FCD00C002120E6DD0027B403F
:0E0FD6009000B27401F09000B374FFF07582C9
:0E0FE40001C002C003120E6DD003D002DBE488
:030FF2000A80ABC7
:010FF50022D9
:020FF6007A017E
:030FF800BA070035
:0E0FFB00504F9000B2E4F09000B37440F075D7
:0E1009008200C002120E6DD00274075A44B865
:0E101700FB9000B2E4F09000B3EBF0758200A5
:09102500C002120E6DD0027B40E6
:0E102E009000B27401F09000B3E4F0758200FF
:0E103C00C002C003120E6DD003D002DBE50A25
:02104A0080AC78
:02104C007A0127
:03104E00BA0700DE
:0E105100504F9000B2E4F09000B37440F07580
:0E105F008201C002120E6DD00274075A44B80E
:0E106D00FB9000B2E4F09000B3EBF07582014E
:09107B00C002120E6DD0027B4090
:0E1084009000B27401F09000B3E4F0758201A8
:0E109200C002C003120E6DD003D002DBE50ACF
:0210A00080AC22
:0110A200222B
:0D10A3009000B57453F09000B67443F090C7
:0C10B00000B7744FF09000B87452F0903C
:0C10BC0000B97445F09000BA743AF0904E
:0B10C80000BB7420F09000BCE4F0902E
:0C10D30000BF7448F09000C07445F0901D
:0C10DF0000C1744CF09000C27449F09005
:0C10EB0000C3745FF09000C47454F090D7
:0C10F70000C57449F09000C6744CF090E5
:0B11030000C77454F09000C8E4F01224
:08110E001D8690022EE4F09012
:0C111600022F7403F09002307401F0907E
:0911220000B575F00012277B9066
:0C112B00022E7407F090022F7428F09040
:0C11370002307401F09000BF75F000025F
:02114300277B08
:0D114500E5829000C9F09000CA7443F0905C
:0C11520000CB744FF09000CC744DF09076
:0C115E0000CD7450F09000CE744CF09066
:0C116A0000CF7445F09000D07454F09059
:0C11760000D17445F09000D27444F09059
:0C11820000D37420F09000D4744CF09066
:0C118E0000D57445F09000D67456F09027
:0C119A0000D77445F09000D8744CF09021
:0B11A60000D97420F09000DAE4F09013
:0C11B10000DB7453F09000DC7454F090EC
:0C11BD0000DD7441F09000DE7452F090F0
:0C11C90000DF7454F09000E07420F090FF
:0C11D50000E1744CF09000E27445F090D2
:0C11E10000E37456F09000E47445F090B8
:0C11ED0000E5744CF09000E67420F090D7
:0B11F90000E7E4F09000E87446F0907E
:0C12040000E97449F09000EA744EF0908C
:0C12100000EB7441F09000EC744CF09086
:0C121C0000ED7420F09000EE744CF09097
:0C12280000EF7445F09000F07456F09058
:0C12340000F17445F09000F2744CF09052
:0C12400000F37420F09000F4743EF09075
:0C124C0000F5743AF09000F67429F09060
:0B12580000F77420F09000F8E4F09024
:0C12630000F97420F09000FA7420F09064
:0C126F0000FB7420F09000FC7420F09054
:0C127B0000FD7420F09000FE7420F09044
:0C12870000FF7420F09001007420F09033
:0E1293000101E4F09000C9E0FA74302AFBC0BB
:0E12A10002C003120FF6D003D002BA0960900B
:0C12AF00022E7403F090022F740CF090DB
:0D12BB000230E4F09000CA75F000C003128C
:0B12C800277BD00390021A7403F09003
:0D12D300021B746BF090021CE4F08B821281
:0912E00022B99017701229FA12CC
:0912E9000FF690022E7403F09040
:0B12F200022F7414F0900230E4F09022
:0C12FD0000E875F00012277B90177012BB
:0513090029FA0213DDCA
:0E130E00EA704190022E7403F090022F7419C1
:0E131C00F0900230E4F09000DB75F000C002AB
:0E132A0012277BD00274312AFC90021A740341
:0E133800F090021B745FF090021CE4F08C82B7
:0A1346001222B99017701229FA0262
:0213500013DDAB
:0E13520074312AFA90022E7403F090022F7468
:0E1360000CF0900230E4F09000CA75F000C06E
:0E136E0002C00312277BD003D00290021A7433
:0E137C0003F090021B746BF090021CE4F08BE7
:0E138A0082C0021222B9D002901770C0021267
:0C13980029FAD002C002120FF6D0029019
:0C13A400022E7403F090022F7419F090D8
:0D13B0000230E4F09000DB75F000C0021286
:0B13BD00277BD00290021A7403F0900E
:0D13C800021B745FF090021CE4F08A821298
:0813D50022B99017701229FAE9
:0313DD00020FF606
:0D13E0009001037447F09001047441F090F7
:0C13ED000105744DF09001067445F0906D
:0C13F90001077420F0900108744FF09080
:0C14050001097456F090010A7445F09043
:0C141100010B7452F090010C7420F0905C
:0C141D00010D743AF090010E7428F0905C
:08142900010FE4F0120FF69030
:0C143100022E7403F090022F741EF09045
:0B143D000230E4F090010375F0001293
:09144800277B9017701229FA02AB
:021451000FF694
:0D1453009001107443F09001117448F09066
:0C14600001127445F09001137441F090EB
:0C146C0001147454F09001157445F090C8
:0C14780001167452F09001177421F090DE
:0C14840001187420F0900119743EF090E3
:0C149000011A743AF090011B7429F090CE
:08149C00011CE4F0120FF690B0
:0C14A400022E7403F090022F741EF090D2
:0B14B0000230E4F090011075F0001213
:0914BB00277B9017701229FA0238
:0214C4000FF621
:0D14C60090011D7441F090011E744CF090D7
:0C14D300011F7449F09001207420F0907B
:0C14DF000121744BF09001227449F09040
:0C14EB000123744CF0900124744CF0902C
:0C14F70001257455F0900126744DF09012
:0C15030001277449F0900128744EF0900C
:0C150F0001297441F090012A7454F090FE
:0B151B00012B7449F090012CE4F090CB
:0C152600012D7450F090012E7452F090D2
:0C153200012F7445F09001307453F090CC
:0C153E0001317445F0900132744EF090C1
:0C154A0001337454F09001347453F0909D
:0B1556000135E4F09001367441F09084
:0C15610001377420F09001387453F090B2
:0C156D000139744DF090013A7455F09073
:0C157900013B7452F090013C7446F0906D
:0C158500013D7443F090013E7441F09071
:0B159100013F7454F0900140E4F09022
:0C159C0001417450F09001427452F09034
:0C15A8000143744FF09001447444F09033
:0C15B40001457455F09001467443F0901E
:0C15C00001477454F09001487449F09009
:0C15CC000149744FF090014A744EF090F9
:0B15D800014BE4F090014C7448F090CF
:0C15E300014D7445F090014E744CF090E6
:0C15EF00014F7449F0900150745FF090BF
:0C15FB0001517454F09001527449F090BA
:0C1607000153744CF09001547454F090A6
:081613000155E4F0120FF6127C
:08161B001D8690022EE4F09000
:0C162300022F7428F09002307401F09047
:09162F00014C75F00012277B90BC
:0C163800022E7407F090022F7428F0902E
:0C16440002307401F090014C75F00012AF
:09165000277B90022E7403F09038
:0B165900022F740FF0900230E4F090BC
:09166400011D75F00012277B90B6
:0C166D00022E7404F090022F7428F090FC
:0B1679000230E4F090012D75F000122B
:09168400277B9013881229FA1249
:09168D000FF690022E7403F09098
:0B169600022F7423F0900230E4F0906B
:0916A100013675F00012277B9060
:0C16AA00022E7404F090022F7423F090C4
:0B16B6000230E4F090014175F00012DA
:0916C100277B9013881229FA120C
:0916CA000FF690022E7403F0905B
:0B16D300022F7428F0900230E4F09029
:0916DE00014C75F00012277B900D
:0E16E70002297403F090022A7440F07582808C
:0E16F50012264D9013881229FAD2977A007BA4
:0117030000E5
:0E170400C3EA9441EB6480948050348A0474EC
:0E1712003B2CFC9002297404F090022AECF0AB
:0E172000758280C002C00312264DD003D00295
:0E172E00900064C002C0031229FAD003D0025A
:07173C000ABA00C40B80C1D2
:05174300C297020FF641
:0D1748009001567450F0900157744CF090D1
:0C17550001587441F09001597459F09053
:0C176100015A7420F090015B7447F09076
:0C176D00015C7441F090015D744DF0903F
:0B177900015E7445F090015FE4F09009
:0C17840001607448F09001617449F0901D
:0C17900001627447F09001637448F0900F
:0C179C0001647420F09001657453F0901B
:0C17A80001667443F0900167744FF090EC
:0C17B40001687452F09001697445F090D7
:0B17C000016A7453F090016BE4F0909C
:0C17CB00016C7443F090016D7441F090CB
:0C17D700016E744CF090016F7449F090AA
:0C17E30001707442F09001717452F0909B
:0C17EF0001727441F09001737454F0908A
:0B17FB0001747445F0900175E4F0905B
:0C18060001767448F09001777445F09072
:0C1812000178744CF09001797449F0905A
:0C181E00017A745FF090017B7454F0902C
:0C182A00017C7449F090017D744CF0903A
:0B183600017E7454F090017FE4F090FC
:0C18410001807453F09001817445F09018
:0C184D0001827454F09001837420F0902C
:0C18590001847444F09001857449F09003
:0C18650001867446F09001877446F090F4
:0C18710001887449F09001897443F090E4
:0C187D00018A7455F090018B744CF090BF
:0C188900018C7454F090018D7459F090A3
:0E189500018EE4F090018F7402F0E4A3F012D3
:0618A3000FF6121D8690F5
:0B18A900022EE4F090022F7428F09053
:0C18B40002307401F090017675F0001213
:0918C000277B90022E7407F090C2
:0C18C900022F7428F09002307401F0909F
:0918D500017675F00012277B90EA
:0E18DE0002297402F090022A740FF0758280C5
:0A18EC0012264D90022E7402F090B7
:0B18F600022F7428F0900230E4F09004
:09190100015675F00012277B90DD
:0C190A00022E7403F090022F7419F0906C
:0B1916000230E4F090018075F0001238
:09192100277B90022E7404F09063
:0B192A00022F7423F0900230E4F090D4
:09193500016075F00012277B909F
:0C193E00022E7405F090022F7428F09027
:0B194A000230E4F090016C75F0001218
:08195500277B900FA01229FA74
:0E195D00120527AA82AB83C002C00312049FAA
:0E196B00AC82AD83D003D002C3746A9A747F3D
:0E1979008BF063F08095F0405990018FE0FEF6
:0E198700A3E0FF90021AEEF090021B740FF026
:0E19950090021CE4F0758220C004C005C0065C
:0E19A300C0071222B9D007D006D005D0041E0E
:0419B100BEFF011F55
:0E19B50090018FEEF0A3EFF090018FE0FEA303
:0E19C300E0FFC3EE9402EF64809480506F90BA
:0A19D100018F7402F0E4A3F08064BB
:0E19DB00C3EA9496EB64809480405990018F8B
:0E19E900E0FAA3E0FB90021AEAF090021B74F1
:0E19F7000FF090021CE4F0758220C002C003C5
:0E1A0500C004C0051222B9D005D004D003D011
:0D1A13000290018F74012AF0E43BA3F090D3
:0E1A2000018FE0FAA3E0FBC374059A74808B7B
:0E1A2E00F063F08095F0500990018F7405F080
:031A3C00E4A3F030
:0E1A3F0090018FE0FAA3E0FB900229EAF090FC
:0E1A4D00022A740FF0758280C002C003C0042C
:0E1A5B00C00512264DD005D004D003D0029055
:0E1A690002EEC002C003C004C0051229FAD06C
:0E1A770005D004D003D002C3746A9C747F8D26
:0B1A8500F063F08095F0500302195D43
:041A90001A8A82220A
:0D1A94009001917454F0900192744FF09005
:0C1AA1000193744FF09001947420F090B9
:0C1AAD0001957445F09001967441F09092
:0C1AB90001977453F09001987459F0905C
:0B1AC5000199E4F090019A7454F09035
:0C1AD000019B744FF090019C744FF0904B
:0C1ADC00019D7420F090019E744DF0906C
:0C1AE800019F7445F09001A07444F09040
:0C1AF40001A17449F09001A27455F0901B
:0B1B000001A3744DF09001A4E4F090EC
:0C1B0B0001A57453F09001A6744DF090F9
:0C1B170001A77441F09001A87453F090F5
:0C1B230001A97448F09001AA7449F090E8
:0C1B2F0001AB744EF09001AC7447F090D4
:0C1B3B0001AD7420F09001AE7443F090F6
:0C1B470001AF7441F09001B07454F090B4
:0B1B530001B1E4F09001B27448F09082
:0C1B5E0001B37445F09001B4744CF09099
:0C1B6A0001B57449F09001B6745FF09072
:0C1B760001B77454F09001B87449F0906D
:0C1B820001B9744CF09001BA7454F0905A
:0E1B8E0001BBE4F09001BC7402F0E4A3F0127D
:061B9C000FF6121D8690F9
:0B1BA200022EE4F090022F7428F09057
:0C1BAD0002307401F09001B275F00012DB
:091BB900277B90022E7407F090C6
:0C1BC200022F7428F09002307401F090A3
:091BCE0001B275F00012277B90B2
:0E1BD70002297402F090022A740FF0758280C9
:0A1BE50012264D90022E7402F090BB
:0B1BEF00022F7428F0900230E4F09008
:091BFA00019175F00012277B90A7
:0C1C0300022E7403F090022F7423F09066
:0B1C0F000230E4F090019A75F0001222
:091C1A00277B90022E7404F09067
:0B1C2300022F741EF0900230E4F090DD
:091C2E0001A575F00012277B905E
:0E1C370002297404F090022A744EF075828027
:091C450012264D900FA01229FA9D
:0E1C4E00120527AA82AB83C002C00312049FB6
:0E1C5C00AC82AD83D003D002C3746A9A747F49
:0E1C6A008BF063F08095F040599001BCE0FED5
:0E1C7800A3E0FF90021AEEF090021B740FF032
:0E1C860090021CE4F0758220C004C005C00668
:0E1C9400C0071222B9D007D006D005D0041E1A
:041CA200BEFF011F61
:0E1CA6009001BCEEF0A3EFF09001BCE0FEA3B5
:0E1CB400E0FFC3EE9402EF64809480506F90C6
:0A1CC20001BC7402F0E4A3F080649A
:0E1CCC00C3EA9496EB6480948040599001BC6A
:0E1CDA00E0FAA3E0FB90021AEAF090021B74FD
:0E1CE8000FF090021CE4F0758220C002C003D1
:0E1CF600C004C0051222B9D005D004D003D01E
:0D1D0400029001BC74012AF0E43BA3F090B2
:0E1D110001BCE0FAA3E0FBC374049A74808B5B
:0E1D1F00F063F08095F050099001BC7404F060
:031D2D00E4A3F03C
:0E1D30009001BCE0FAA3E0FB900229EAF090DB
:0E1D3E00022A740FF0758280C002C003C00438
:0E1D4C00C00512264DD005D004D003D0029061
:0E1D5A0002EEC002C003C004C0051229FAD078
:0E1D680005D004D003D002C3746A9C747F8D32
:0B1D7600F063F08095F05003021C4E5B
:051D81001A1A8A8222FB
:041D86007A007B0064
:0E1D8A00C3EA9401EB6480948050709000B224
:0E1D9800E4F09000B37440F0758200C002C009
:0E1DA60003120E6DD003D00274075AFC7D00AC
:0E1DB4004304B89000B2E4F09000B3ECF07578
:0E1DC2008200C002C003120E6DD003D0027C5E
:031DD000407D0053
:0E1DD3009000B27401F09000B374FFF07582BE
:0E1DE10000C002C003C004C005120E6DD00584
:0B1DEF00D004D003D0021CBCFF011D7B
:0B1DFA00EC4D70D50ABA00880B808504
:041E05007A077B00DD
:0E1E0900C3EA9408EB6480948050709000B29D
:0E1E1700E4F09000B37440F0758200C002C089
:0E1E250003120E6DD003D00274075AFC7D002C
:0E1E33004304B89000B2E4F09000B3ECF075F8
:0E1E41008200C002C003120E6DD003D0027CDE
:031E4F00407D00D3
:0E1E52009000B27401F09000B374FFF075823E
:0E1E600000C002C003C004C005120E6DD00504
:0B1E6E00D004D003D0021CBCFF011DFB
:0B1E7900EC4D70D50ABA00880B808584
:041E84007A007B0065
:0E1E8800C3EA9401EB6480948050709000B225
:0E1E9600E4F09000B37440F0758201C002C009
:0E1EA40003120E6DD003D00274075AFC7D00AD
:0E1EB2004304B89000B2E4F09000B3ECF07579
:0E1EC0008201C002C003120E6DD003D0027C5E
:031ECE00407D0054
:0E1ED1009000B27401F09000B374FFF07582BF
:0E1EDF0001C002C003C004C005120E6DD00584
:0B1EED00D004D003D0021CBCFF011D7C
:0B1EF800EC4D70D50ABA00880B808505
:041F03007A077B00DE
:0E1F0700C3EA9408EB6480948050709000B29E
:0E1F1500E4F09000B37440F0758201C002C089
:0E1F230003120E6DD003D00274075AFC7D002D
:0E1F31004304B89000B2E4F09000B3ECF075F9
:0E1F3F008201C002C003120E6DD003D0027CDE
:031F4D00407D00D4
:0E1F50009000B27401F09000B374FFF075823F
:0E1F5E0001C002C003C004C005120E6DD00504
:0B1F6C00D004D003D0021CBCFF011DFC
:0B1F7700EC4D70D50ABA00880B808585
:011F8200223C
:0D1F83009001BE7441F09001BF7444F090D5
:0C1F900001C07458F09001C1744CF09036
:0C1F9C0001C27433F09001C37434F09063
:0C1FA80001C47435F09001C57420F09065
:0C1FB40001C67452F09001C77465F090F3
:0C1FC00001C87461F09001C97464F090D5
:0C1FCC0001CA7469F09001CB746EF090B3
:0C1FD80001CC7467F09001CD7473F090A0
:0B1FE40001CEE4F09001D27458F090A0
:0C1FEF0001D3742DF09001D47441F090E7
:0C1FFB0001D57478F09001D67469F09064
:0C20070001D77473F09001D8743AF09087
:0B20130001D9E4F09001DC7459F0905A
:0C201E0001DD742DF09001DE7441F090A3
:0C202A0001DF7478F09001E07469F09020
:0C20360001E17473F09001E2743AF09044
:0B20420001E3E4F09001E6745AF09016
:0C204D0001E7742DF09001E87441F09060
:0C20590001E97478F09001EA7469F090DD
:0C20650001EB7473F09001EC743AF09001
:0B20710001EDE4F09001F07420F0900D
:0C207C0001F17420F09001F27420F0904B
:0C20880001F37420F09001F47420F0903B
:0C20940001F57420F09001F67420F0902B
:0B20A00001F77420F09001F8E4F090CC
:0920AB000218F0A3F0120F479097
:0B20B400022EE4F090022F7411F09057
:0C20BF0002307401F09001BE75F00012B8
:0920CB00277B90022E7402F090B4
:0C20D400022F7403F09002307401F090B1
:0920E00001D275F00012277B907B
:0C20E900022E7404F090022F7403F0909B
:0C20F50002307401F09001DC75F0001264
:09210100277B90022E7406F09079
:0C210A00022F7403F09002307401F0907A
:0C21160001E675F00012277B9007D01244
:0221220029FA98
:0A2124009003D5E0FA60030222A93F
:0E212E00900218E0FAA3E0FBC3746A9A747F73
:0C213C008BF063F08095F040030222A9B4
:0E21480012049FAA82AB83900218EAF0A3EB68
:0E215600F0C002C003120527AC82AD83D00397
:0E216400D002C002C003C004C0051205AFAE19
:0E21720082AF83D005D004D003D00290038D3D
:0A21800074FAF0A37401F0A37400D8
:0E218A00F0900390740AF08A828B83C004C028
:0E21980005C006C007124009D007D006D005CA
:0E21A600D00490022E7402F090022F7432F0DA
:0E21B4009002307401F09001FA75F000C00442
:0E21C200C005C006C00712277BD007D006D08C
:0B21D00005D00490038D7404F0A3748C
:0C21DB0002F0A37400F0900390740AF06E
:0E21E7008C828D83C006C007124009D007D03D
:0E21F5000690022E7404F090022F7432F090C7
:0E22030002307401F090020475F000C006C0B5
:0C2211000712277BD007D00690038D74C5
:0A221D000EF0A37402F0A37400F0A9
:0E222700900390740AF08E828F83124009900B
:0C223500022E7406F090022F7432F0901C
:0C22410002307401F090020E75F00012E3
:09224D00277B90015E1229FA9032
:0C225600022E7402F090022F7432F090FF
:0C22620002307401F09001F075F00012E1
:09226E00277B90022E7404F0900D
:0C227700022F7432F09002307401F090DD
:0922830001F075F00012277B90B8
:0C228C00022E7406F090022F7432F090C5
:0C22980002307401F09001F075F00012AB
:0522A400277B0221244C
:0A22A9009003D5E0FA600312063737
:0622B3009003D5E4F022C7
:0E22B900E58290021DF090021BE0FA30E60470
:0422C7007B01800215
:0222CB007B0096
:0D22CD0090021EEBF090021F743F5AF0903B
:0B22DA00021DE0FB24E090021DF090CC
:0922E500021CE0FB70030223DB84
:0E22EE0090021AE0FB74075B44B8FD90021DDD
:0E22FC00E0FCC2D575F005EC30E704B2D5F475
:01230A0004CE
:0E230B00A430D50AF42401C5F0F43400C5F066
:0A231900F50885F0098A067F0078B8
:0123230000B9
:0C232400C3EF9405E8648094804001221F
:0E23300090021EE0F990021FE0FB743F5B4438
:0E233E0040FB9000B2E4F09000B3EBF0898217
:0E234C00C005C006C007C000C001120E6DD053
:0E235A0001D000D007D006D0059000B2E4F00C
:0E2368009000B3EDF08982C005C006C007C02A
:0E23760000C001120E6DD001D000D007D006BD
:0A238400D005EF2508FBE83509FC41
:0A238E00EB24F5F582EC344CF583E6
:0E239800E493F4FB9000B27401F09000B3EBFC
:0E23A600F08982C005C006C007C000120E6D8F
:0E23B400D000D007D006D0050EEE30E6047B38
:0323C20001800295
:0223C5007B009B
:0E23C70090021EEBF090021F743F5EF00FBFFD
:0323D500000108FC
:0323D800022324B9
:0E23DB0090021AE0FB74075B44B8FB90021DF1
:0E23E900E0FCC2D575F005EC30E704B2D5F487
:0123F70004E1
:0E23F800A430D50AF42401C5F0F43400C5F079
:07240600FCADF07E007F0039
:0C240D00C3EE9405EF648094804001222F
:0E24190090021EE0F890021FE0F9743F594453
:0E24270040F99000B2E4F09000B3E9F0888232
:0E243500C002C003C004C005C006C007C0003E
:0E244300120E6DD000D007D006D005D004D008
:0E24510003D0029000B2E4F09000B3EBF088EC
:0E245F0082C002C003C004C005C006C007C092
:0E246D0000120E6DD000D007D006D005D004AE
:0E247B00D003D002C003EE2CF9EF3DFBE924A4
:0A248900F5F582EB344CF583E49383
:0E249300FB9000B27401F09000B3EBF0888271
:0D24A100C002C003C004C005C006C0071281
:0E24AE000E6DD007D006D005D004D003D002AA
:0C24BC000AEA5440D0036004780180025A
:0224C80078009A
:0E24CA0090021EE8F090021F743F5AF00EBE02
:0324D80000010FF1
:0324DB0002240DCB
:0E24DE00AA83E582900224F0A3EAF090022186
:0D24EC00E0FAA3E0FBEA30E6047C01800288
:0224F9007C0065
:0E24FB00900226ECF0743F5AFC7D0090022700
:0E250900ECF0900223E0FC70089002287407AA
:03251700F080064B
:06251A009002287405F098
:0E252000900220E0FC74075C44B8FC9002249A
:0C252E00E0FDA3E0FE900228E0F50A7832
:03253A0000790025
:0C253D00C004AC0A7F00C3E89CE9648085
:0C2549008FF063F08095F0D00440012278
:0E255500C3747F9A74808BF063F08095F05011
:02256300012253
:07256500EB30E70302262220
:0E256C00C002C003900226E0FF900227E0FAB2
:0E257A00743F5A4440FA9000B2E4F09000B36F
:0E258800EAF08F82C002C003C004C005C00686
:0E259600C007C000C001120E6DD001D000D0F1
:0E25A40007D006D005D004D003D0029000B2BC
:0E25B200E4F09000B3ECF08F82C002C003C0D2
:0E25C00004C005C006C007C000C001120E6DA9
:0E25CE00D001D000D007D006D005D004D00335
:0C25DC00D002E82DFAE93EFBEA24F5F5F8
:0B25E80082EB344CF583E493F4FA908E
:0E25F30000B27401F09000B3EAF08F82C002D3
:0D260100C003C004C005C006C000C0011227
:0E260E000E6DD001D000D006D005D004D00350
:06261C00D002D003D00241
:052622000ABA00010BE3
:08262700EA30E6047F018002A5
:02262F007F002A
:0E263100C004900226EFF0743F5AFF7C009028
:09263F000227EFF008B8000109C0
:05264800D00402253D55
:0E264D00E58290022BF090022AE0FA30E604BB
:04265B007B0180027D
:02265F007B00FE
:0D26610090022CEBF090022D743F5AF09087
:0B266E00022BE0FB24E090022BF09018
:0E2679000229E0FB74075B44B8FB90022BE0E3
:0E268700FCC2D575F005EC30E704B2D5F404C2
:0E269500A430D50AF42401C5F0F43400C5F0D9
:0726A300FCADF07E007F009A
:0C26AA00C3EE9405EF6480948040012290
:0E26B60090022CE0F890022DE0F9743F594498
:0E26C40040F99000B2E4F09000B3E9F0888293
:0E26D200C002C003C004C005C006C007C0009F
:0E26E000120E6DD000D007D006D005D004D069
:0E26EE0003D0029000B2E4F09000B3EBF0884D
:0E26FC0082C002C003C004C005C006C007C0F3
:0E270A0000120E6DD000D007D006D005D0040E
:0E271800D003D002C003EE2CF9EF3DFBE92404
:0A272600F5F582EB344CF583E493E3
:0E273000FB9000B27401F09000B3EBF08882D1
:0D273E00C002C003C004C005C006C00712E1
:0E274B000E6DD007D006D005D004D003D0020A
:0C2759000AEA5440D003600478018002BA
:022765007800FA
:0E27670090022CE8F090022D743F5AF00EBE46
:0327750000010F51
:032778000226AA8C
:0E277B00AAF0AB83E582900231F0A3EBF0A34D
:0E278900EAF0900234E4F0A3F0900230E0FA9F
:0B279700900231E0FBA3E0FCA3E0FD9A
:0D27A2008B828C838DF0124C6FFE70030251
:0227AF00283CC4
:0527B1000BBB00010C50
:0E27B600900231EBF0A3ECF0A3EDF090022EB8
:0D27C400E0FF90022FE0F890021AEFF09075
:0E27D100021BE8F090021CEAF08E82C002C0EB
:0E27DF0003C004C005C007C0001222B9D0001C
:0E27ED00D007D005D004D003D00290022F7484
:0E27FB000628F0900234E02401F0A3E0340040
:0E280900F0900234E0FEA3E0F8BE158DB8009A
:0E2817008A90022E74012FF090022EE0FEBE79
:07282500080590022EE4F00B
:0E282C0090022F7403F0900234E4F0A3F00247
:02283A0027A2D3
:0C283C00900231EBF0A3ECF0A3EDF022D1
:0E284800E58290023AF0900239E0FA60030255
:02285600292433
:0E285800900236E0FB6061900237E0FBA3E0E7
:0A286600FC90023AE0FD7E017F00C5
:092870008D00790008B80001098F
:0E287900C3EE98EF648089F063F08095F04024
:0228870001222C
:0E288900900220EEF0900221EBF0A3ECF09014
:0E2897000223EAF09001E5C002C003C004C0B5
:0E28A50005C006C0071224DED007D006D005FD
:0D28B300D004D003D0020EBE00B30F80B0E1
:0E28C000900237E0FBA3E0FC90023AE0FD7EC0
:0328CE00067F0082
:0E28D1008D0079007406C398F8E499F9C3E805
:0E28DF009EE964808FF063F08095F040012246
:0E28ED00900220EEF0900221EBF0A3ECF090B0
:0E28FB000223EAF09001E5C002C003C004C051
:0E29090005C006C0071224DED007D006D00598
:0D291700D004D003D0021EBEFFB01F80AD63
:0E292400900236E0FB6066900237E0FBA3E015
:06293200FC0BBB00010CD0
:0929380090023AE0FD7E017F00EF
:092941008D00790008B8000109BD
:0E294A00C3EE98EF648089F063F08095F04052
:0229580001225A
:0E295A00900220EEF0900221EBF0A3ECF09042
:0E2968000223EAF09001ECC002C003C004C0DC
:0E29760005C006C0071224DED007D006D0052B
:0D298400D004D003D0020EBE00B30F80B00F
:0D299100900237E0FBA3E0FC0BBB00010C43
:09299E0090023AE0FD7E067F0084
:0E29A7008D0079007406C398F8E499F9C3E82E
:0E29B5009EE964808FF063F08095F0503790BB
:0D29C3000220EEF0900221EBF0A3ECF0906A
:0E29D0000223EAF09001ECC002C003C004C074
:0E29DE0005C006C0071224DED007D006D005C3
:0D29EC00D004D003D0021EBEFFB11F80AE8C
:0129F90022BB
:0E29FA00AA83E58290023BF0A3EAF090023D32
:0E2A0800E4F0A3F090023BE0FAA3E0FB7C00B8
:022A16007D0041
:0E2A1800C3EC9AED9B502A90023DE0FEA3E035
:052A2600FF7853790068
:062A2B00000EBE00010FC9
:052A310018B8FF0119B7
:0E2A3600E84970F190023DEEF0A3EFF00CBC09
:052A440000D20D80CF5F
:012A4900226A
:0E2A4A00AA83E582900241F0A3EAF0900243D5
:0E2A5800E0FAA3E0FB8B058A048A06EBC313A9
:0E2A6600CE13CEC313CE13CEFFEE6204EF628A
:0E2A7400058A06EBC423CEC423541F6ECE5435
:0E2A82001FCE6ECEFFEE6204EF62058A06EBF9
:0E2A9000C403CEC40354076ECE5407CE6ECEE0
:0E2A9E00FFEE6204EF62055304017D00EBC3FE
:0D2AAC0013CA13CAFBEC035480FD7C00909C
:0E2AB9000243EC4AF0ED4BA3F0900241E0FA2C
:0E2AC700A3E0FB90023FE0FCA3E0FDECC39A0D
:0D2AD500FCED9BFD900243E0FEA3E0FF90AE
:0E2AE2000395ECF0A3EDF08E828F83C002C04E
:0E2AF000031241C3E5828583F0D003D0022A91
:092AFE00FAEB35F08A82F583221F
:0E4CF500000000000000005F00000007000744
:0E4D030000147F147F14242A7F2A1223130821
:0E4D1100646236495522500005030000001C64
:0E4D1F002241000041221C00082A1C2A08081C
:0E4D2D00083E0808005030000008080808087A
:0E4D3B00003030000020100804023E514945AF
:0E4D49003E00427F40004261514946214145F3
:0E4D57004B311814127F1027454545393C4A50
:0E4D65004949300171090503364949493606AE
:0E4D73004949291E0036360000005636000061
:0E4D81000008142241141414141441221408C2
:0E4D8F00000201510906324979413E7E1111A0
:0E4D9D00117E7F494949363E414141227F4106
:0E4DAB0041221C7F494949417F090901013E0F
:0E4DB900414151327F0808087F00417F4100D0
:0E4DC7002040413F017F081422417F404040C0
:0E4DD500407F0204027F7F0408107F3E4141B0
:0E4DE300413E7F090909063E4151215E7F09CC
:0E4DF100192946464949493101017F01013F18
:0E4DFF004040403F1F2040201F7F2018207F93
:0E4E0D006314081463030478040361514945DB
:0E4E1B004300007F4141020408102041417F06
:0E4E290000000402010204404040404000012D
:0E4E370002040020545454787F484444383814
:0E4E450044444420384444487F3854545418A0
:0E4E5300087E090102081454543C7F08040430
:0E4E61007800447D40002040443D00007F105A
:0E4E6F00284400417F40007C041804787C0831
:0E4E7D0004047838444444387C1414140808A3
:0E4E8B001414187C7C08040408485454542065
:0E4E9900043F4440203C4040207C1C20402030
:0E4EA7001C3C4030403C44281028440C505025
:0E4EB500503C4464544C440008364100000058
:0E4EC3007F0000004136080008082A1C08087D
:0E4ED1001C2A0808003A3E3A00FF00000000CC
:074EDF0000FF0000000000CD
:06000000020006023D0AA9
:0A00690090024AE4F0900380E4F0F6
:03007300022B0756
:052B0700122B4F80FEBF
:0A2B0C00438E0C438F01900000225D
:072B1600120D6E120D781282
:062B1D000D7E120076128D
:062B2300046A12045E903A
:0E2B290002457403F0E4A3F09002477403F039
:0D2B37009003D2E4F0A3F09003D4E4F090FA
:0B2B440003D5F043A881D288C297227D
:082B4F00900248E4F0122B167D
:0A2B5700121748AA82BA0102800F8B
:052B6100BA020280161B
:052B6600BA0302801C0F
:052B6B00BA0429801CE2
:0C2B7000900248E0FAF582122BA880DBEE
:0B2B7C00121A94E582900248F080D00D
:052B8700122E9280CB2C
:0B2B8C009003D47401F0121F8380C07E
:092B970074D7C0E07450C0E012D4
:082BA00040BB1581158180AFD7
:0E2BA800E582900249F09003377480F0E4A3B8
:0E2BB600F0900339E4F0A3F090033BE4F090BC
:0A2BC400024AE0FA70091214C690EC
:052BCE00024A7401F051
:0A2BD3001210A39002297403F09081
:0E2BDD00022A7403F075828012264D75820064
:0C2BEB00121145D297900249E0FA7B00DD
:032BF700BB0A0016
:052BFA004003022E83E0
:0A2BFF0090033BE0FC6003022E830C
:052C0900BB0902803F41
:082C0E0090036C74F3F0A37451
:0B2C160002F0A3E4F090036FEAF090DE
:072C21000370743CF0A37482
:092C280003F0A3E4F090037374BF
:0A2C31003DF0A37403F0A3E4F0905B
:0E2C3B0002AF75F000C002C0031235F3D003E3
:042C4900D002803EF7
:082C4D0090036C74F3F0A37412
:0C2C550002F0A3E4F090036F7403F09011
:072C61000370743CF0A37442
:092C680003F0A3E4F0900373747F
:0A2C71003DF0A37403F0A3E4F0901B
:0E2C7B0002AF75F000C002C0031235F3D003A3
:022C8900D00277
:0E2C8B00900339E0FCA3E0FD900337E0FEA3C8
:022C9900E0FF5A
:0A2C9B0090033BE0F86003022E09ED
:092CA50090033CE0F89003637415
:0A2CAE00F3F0A37402F0A3E4F09029
:0D2CB8000366EEF0A3EFF0900368E8F090E3
:0E2CC50002AF75F000C002C003C004C005C01D
:0E2CD30006C0071234F6D007D006D005D00494
:0E2CE100D003D002C002C003C004C005C0066C
:0E2CEF00C007123920D007D006D005D004D07F
:0E2CFD0003D0029003D2E0F8A3E0F94870463D
:092D0B0090033CE0F890035474BD
:0A2D1400F3F0A37402F0A3E4F090C2
:0D2D1E000357EEF0A3EFF0900359E8F0909A
:0E2D2B0002AF75F000C002C003C004C005C0B6
:0E2D390006C007123120E582D007D006D00573
:0A2D4700D004D003D00290033BF04B
:0E2D510090033DE0F8790088828983C002C0BB
:0E2D5F0003C004C005C006C0071229FAD00741
:0E2D6D00D006D005D004D003D0020CBC00016B
:012D7B000D4A
:082D7C0090038D744BF0A37469
:0C2D840002F0A37400F0900390740AF0B9
:0E2D90008C828D83C002C003C004C005C00643
:0E2D9E00C007124009D007D006D005D004D0DF
:0E2DAC0003D00290022EE4F090022F7428F063
:0E2DBA009002307401F090024B75F000C002E0
:0E2DC800C003C004C005C006C00712277BD0A0
:0E2DD60007D006D005D004D003D0021EBEFFE9
:022DE400011FCD
:0E2DE60090033CE0F875F01EA4F42401C5F043
:0E2DF400F43400C5F0F8A9F0EEB50006EFB516
:042E02000102800346
:032E0600022C9B00
:0E2E0900900339ECF0A3EDF0900337EEF0A348
:0E2E1700EFF090033BE0FC7021BB0902801C31
:0E2E250074012BFCF582C002C003121145D0CF
:0E2E330003D0029003377480F0E4A3F0802FE8
:0E2E410090033BE0FC601DC2979005DCC002D0
:0E2E4F00C0031229FAD003D002C002C0031241
:082E5D0013E0D003D002800B4A
:0B2E6500C002C003121453D003D002BF
:0E2E70009002457403F0E4A3F090024774034F
:052E7E00F00B022BF730
:0D2E8300900339E0FAA3E0FB8A828B830202
:022E90002F729F
:0B2E9200900349E4F0A3F0120FF6904B
:042E9D000348E4F012
:082EA100900348E0FABA0500B5
:052EA9004003022F426E
:0E2EAE0074012AFBF582C002C00312301EAC74
:0C2EBC0082AD83D003D00290038D743EE1
:0C2EC800F0A37403F0A37400F0900390DA
:0E2ED400740AF08C828D83C002C00312400984
:0E2EE200D003D00274312AFA90021AEBF0905D
:0E2EF000021B742DF090021CE4F08A82C003D5
:0B2EFE001222B9D00390021AEBF090F2
:0E2F0900021B7432F090021CE4F075822EC0A0
:0C2F1700031222B9D00390022EEBF090C0
:0B2F2300022F743CF0900230E4F090AC
:0D2F2E00033E75F000C00312277BD0039016
:072F3B000348EBF0022EA198
:062F4200900FA01229FA15
:0E2F4800900349E0FAA3E0FBC3746A9A747F19
:0E2F56008BF063F08095F0501212049FE5821C
:0D2F64008583F0900349F0A3E5F0F080D7DD
:012F7100223D
:0E2F7200AA83E58290034BF0A3EAF090034D92
:0D2F80007401F090034BE0FAA3E0FB7C012C
:032F8D00BC06007F
:032F9000400122DB
:0E2F93008C82C002C003C00412301EAD82AE9C
:0E2FA10083D004D003D002C3ED9AEE9B50669D
:072FAF0090034DE0FD7E04DC
:0E2FB600C3EE9D4038C005EE75F002A4FFA8E2
:0E2FC400F08E82C006C007C00012301EA98227
:0E2FD200AD83D000D007D006900351EFF089F8
:0E2FE000828D83C005C0061230B5D006D00524
:052FEE001ED00580C3A8
:072FF3007E001DBDFF011E61
:0E2FFA00EECD25E0CD33FE90034BE0FFA3E0CB
:0D300800F8900351EDF08F8288830230B5FF
:093015000C90034DECF0022F8D2C
:0E301E00E58290034EF090034EE0FA7B001A1C
:04302C00BAFF011BCB
:0E303000EBCA25E0CA33FB90034FE4F0A3F097
:02303E007C0014
:03304000BC0200CF
:0E304300506490034FE0FDA3E08D067D0090E9
:0E305100034FEDF0A3EEF08C057E00ED2AFD9E
:0E305F00EE3BFE8D828E83C002C003C004C013
:0E306D0005C006120AE8D006D005D004D00334
:0D307B00D0028D828E83C002C003C00412FB
:0D3088000AE8AD82AE83D004D003D00290E0
:0E309500034FE0FFA3E0F890034FED4FF0EE85
:0630A30048A3F00C809729
:0C30A90090034FE0FAA3E08A82F5832236
:0E30B500AA83E582900352F0A3EAF090035143
:0430C300E0FA7B00B4
:0330C700BB020049
:0E30CA005053900352E0FCA3E0FD7E008D0702
:0E30D800900098EFF08A067F008B007900E8E8
:0E30E6002EFEE93FFF8E828F83C002C003C022
:0E30F40004C005120A73D005D004D003D00228
:0D3102008C057C00900352ECF0A3EDF090E2
:0E310F000005C002C0031229FAD003D0020B43
:02311D0080A888
:01311F00228D
:0E312000AAF0AB83E58290035AF0A3EBF0A374
:0E312E00EAF090035DE4F0A3F0900359E0FA9C
:04313C007B007C0098
:0E3140008A057E00C3EB9DEC9E40030234F234
:0E314E00C00290035AE0FDA3E0FEA3E0FF8B59
:0E315C0000ECC825E0C833C825E0C833F9E808
:08316A002DF522E93EF5238F4B
:083172002474022522FAE43561
:0A317A0023FDAE248A828D838EF0BF
:07318400124C6FF525A312A8
:05318B004C6FF52690D9
:083190000357E0F527A3E0F569
:0431980028E52525DC
:04319C0027F529E505
:0431A000263528F5B3
:0531A4002A90035FE525
:0731A90029F0A3E52AF090D4
:0831B0000354E0F52BA3E0F548
:0731B8002CA3E0F52DE82532
:0731BF002BFAE9352CFDAEEF
:0C31C6002D74022AFAE43DFD8A828D83FC
:0D31D2008EF0124C6FFAA3124C6FFDEA252F
:0531DF0027F52EED357F
:0431E40028F52F900B
:0731E8000361E52EF0A3E5F1
:0B31EF002FF0900245E0FEA3E0FF85FA
:0631FA002282852383857B
:0632000024F0124C6FF5F2
:0632060022A3124C6FF53B
:0A320C00238E028F05C3E5229AE528
:0B321600239DE433D00260030233610B
:0E322100C002900247E0FD7E0074042DF8E428
:0A322F003EF974012529FAE4352A5E
:0E323900FFC3E89AE964808FF063F08095F09F
:0E324700D002404CC00274042DF8E43EF9742D
:0A325500052529FAE4352AFFC3EA33
:0E325F0098EF648089F063F08095F0D0024013
:06326D0029AA22E5252537
:0532730027FBE52635F4
:0932780028FC9002367401F0906C
:0E3281000237EBF0A3ECF09002397401F08AF2
:08328F00821228487582012219
:0E329700C00274012DF8E43EF990035FE0F5EB
:0832A50030A3E0F531740125AE
:0A32AD0030FAE43531FFC3E89AE976
:0E32B70064808FF063F08095F0E433D0026005
:0432C500030234E2EA
:0732C900C0020DBD00010E63
:0A32D00074052530FFE43531FAC320
:0E32DA00EF9DEA64808EF063F08095F0E4339F
:0732E800D00260030234E292
:0E32EF0090035AE0FAA3E0FBA3E0FC90035D1D
:0E32FD00E0FDA3E0FECD25E0CD33CD25E0CDF4
:0E330B0033FEED2AFAEE3BFB8A828B838CF0B8
:0E331900124C6FFDA3124C6FFE8D0074022A41
:0D332700FEE43BFF8C058E828F838DF0123B
:0A3334004C6FFEA3124C6FFFEE2554
:07333E0027FEEF3528FF9088
:0E33450002367401F0900237EEF0A3EFF09024
:0E33530002397401F088821228487582012226
:09336100C002E8252BF522E93534
:04336A002CF5238596
:03336E002D248586
:0633710022828523838502
:0633770024F0124C6FF57A
:06337D0030A3124C6FF5B5
:09338300317407C39530FDE49597
:0C338C0031F88E018F02C3E99DEA98E43D
:0833980033D00260030234E2AD
:0E33A000C002900247E0F87900740428FAE4B5
:0A33AE0039FD7401252EFEE4352FD1
:0E33B800FFC3EA9EED64808FF063F08095F015
:0E33C600D0024063C002740428FDE439FE7496
:0A33D40005252EFFE4352FFAC3EFA4
:0E33DE009DEA64808EF063F08095F0D002408E
:0A33EC0040A83074022522FEE435EB
:0A33F60023FFAD248E828F838DF03B
:0B340000124C6FFEA3124C6FFFEE2574
:07340B0027FEEF3528FF90BA
:0D3412000236E4F0900237EEF0A3EFF090E8
:0E341F0002397401F088821228487582012259
:0E342D00C002740128FDE439FE900361E0F551
:08343B0030A3E0F53174012516
:0A34430030FFE43531FAC3ED9FEECF
:0E344D0064808AF063F08095F0E433D0026072
:04345B00030234E252
:05345F0008B80001099E
:0A34640074052530FDE43531FEC388
:0E346E00ED98EE648089F063F08095F0406682
:0E347C0090035DE0FDA3E0FECD25E0CD33CD55
:0B348A0025E0CD33FEED252BFDEE35D7
:0A3495002CFEAF2D8D828E838FF088
:0E349F00124C6FF8A3124C6FF974022DFDE46D
:0E34AD003EFE8D828E838FF0124C6FFDA312B7
:0934BB004C6FFEED2527FDEE35F6
:0834C40028FE900236E4F090AE
:0E34CC000237EDF0A3EEF09002397401F088A3
:0834DA008212284875820122CC
:0534E2000BBB00010C12
:0B34E70090035DEBF0A3ECF00231401D
:0434F20075820022BD
:0E34F600AAF0AB83E582900369F0A3EBF0A38C
:0B350400EAF0900369E0F537A3E0F562
:06350F0038A3E0F539903D
:0C3515000366E0FDA3E0FE900363E0F518
:0835210034A3E0F535A3E0F549
:0635290036900368E0F596
:04352F0032753300BE
:08353300C3E53395324001228B
:0A353B00E53325E025E0FF2537F811
:0A354500E43538F9AA398882898339
:0E354F008AF0124C6FFBA3124C6FFC74022822
:0E355D00F8E439F9888289838AF0124C6FF8FD
:0E356B00A3124C6FF9E82DF8E93EF9900236F4
:0E3579007401F0900237E8F0A3E9F0900239F7
:0E358700E4F08B82C005C006C007122848D0B1
:0B35950007D006D005EF2534FFE43519
:0A35A00035FAAB368F828A838BF078
:0E35AA00124C6FFCA3124C6FF874022FFFE45A
:0E35B8003AFA8F828A838BF0124C6FFFA312B7
:0E35C6004C6FFAEF2DFFEA3EFA900236E4F069
:0E35D400900237EFF0A3EAF0900239E4F08C99
:0D35E20082C005C006122848D006D005059D
:0435EF00330235333B
:0E35F300AAF0AB83E582900376F0A3EBF0A381
:0C360100EAF090037DE4F090037EF0906E
:0D360D00037FF090036FE0FA24FC500302ED
:02361A00371364
:07361C00EA2A2A903623730D
:0736230002362F02366A0295
:05362A0036A50236DFA9
:0D362F0090037E7404F090037D7401F09010
:0E363C000370E0FAA3E0FBA3E0FC8A828B831C
:0E364A008CF074051240A2900373E0FAA3E026
:0D365800FBA3E0FC8A828B838CF074C81207
:0536650040A202374500
:0D366A0090037E7406F090037D7401F090D3
:0E3677000370E0FAA3E0FBA3E0FC8A828B83E1
:0E3685008CF0740A1240A2900373E0FAA3E0E6
:0D369300FBA3E0FC8A828B838CF074641230
:0536A00040A2023745C5
:0D36A50090037E740AF090037D7401F09094
:0E36B2000370E0FAA3E0FBA3E0FC8A828B83A6
:0E36C0008CF0740F1240A2900373E0FAA3E0A6
:0D36CE00FBA3E0FC8A828B838CF074281231
:0436DB0040A2806623
:0E36DF0090037F7401F0900370E0FAA3E0FB0B
:0E36ED00A3E0FC8A828B838CF074031240A24F
:0E36FB00900373E0FAA3E0FBA3E0FC8A828B4D
:0A370900838CF074141240A2803289
:0E37130090037E7403F0900370E0FAA3E0FBD5
:0E372100A3E0FC8A828B838CF074071240A216
:0E372F00900373E0FAA3E0FBA3E0FC8A828B18
:08373D00838CF074C81240A255
:0737450090037DE0F54490C4
:06374C00037EE0F545904C
:0E375200037FE0FC900376E0FDA3E0FEA3E021
:0A376000FF90036CE0F53AA3E0F5DA
:06376A003BA3E0F53C90DA
:083770000370E0F53DA3E0F554
:073778003EA3E0F53FE4F57C
:04377F0046F547754F
:07378300400FE4F541E4F5FD
:03378A0042F543C2
:07378D00853D82853E838526
:0A3794003FF0124C6FFB7A00C3E512
:08379E00429BE5439A40012221
:0637A600EC600302384F45
:0837AC00C004AA447C0085451D
:0537B40048754900907A
:0737B900023FE548F0A3E523
:0C37C00049F08A828C83C002C004C0055E
:0E37CC00C006C007122A4AA982AB83D007D0DC
:0E37DA0006D005D004D002900379E9F0A3EBED
:0937E800F090023FE548F0A3E572
:0C37F10049F08A828C83C003C004C0052C
:0E37FD00C006C007C001122A4AE5828583F08B
:0D380B00D001D007D006D005D004D0039026
:0E381800037BF0A3E5F0F0C3740599E49BE494
:0E38260033D00460099003797405F0E4A3F038
:0E38340090037BE0FAA3E0FBC374059AE49BCB
:0D384200501B90037B7405F0E4A3F0801090
:0E384F009003797406F0E4A3F090037BE4F09C
:02385D00A3F0D6
:0A385F00C004AA42E543CA25E0CAEE
:0C38690033CA25E0CA33FBEA2DF54AEB18
:063875003EF54B8F4C9064
:0B387B000379E0FCA3E0F8854A828599
:073886004B83854CF0EC12AE
:0E388D0040A2A3E81240A2EA2DFCEB3EF88F09
:0E389B000174022CFCE438F88C82888389F0DA
:0738A900E5461240A2A3E571
:0638B000471240A2EA25C8
:0538B6003AF54AEB3574
:0438BB003BF54B8509
:0338BF003C4C90EE
:0B38C200037BE0FCA3E0F8854A828550
:0738CD004B83854CF0EC1267
:0938D40040A2A3E81240A2EA257B
:0738DD003AFAEB353BFBACAE
:0C38E4003C74022AFAE43BFB8A828B83CE
:0938F0008CF0E5401240A2A3E5B2
:0738F900411240A2741E25DC
:0539000046F546E43528
:0639050047F547741E2582
:05390B0040F540E43529
:0439100041F5410537
:0639140042E4B542020589
:01391A004369
:05391B00D00402378D0D
:0E392000120527AA82AB83C002C00312049FC7
:0E392E00AC82AD83D003D002C3EA946BEB648D
:0E393C0080947FE433FE7044C374959A7480C7
:0E394A008BF063F08095F04035EC946BED64EB
:0E39580080947F402B74959C74808DF063F0FA
:0E3966008095F0401D900245E0FFA3E0F89030
:0A3974000247E0F8900229EFF090FE
:0A397E00022AE8F075828002264D4F
:0E398800EE704FC374959A74808BF063F080DC
:0E39960095F04040746A9C747F8DF063F08061
:0E39A40095F04032900247E02401F090024777
:0B39B200E0FFBF7B06900247747AF034
:0E39BD00900245E0FFA3E0F8900247E0F8908A
:0D39CB000229EFF090022AE8F075828002D8
:0239D800264D7A
:0E39DA00EE704DC374959A74808BF063F0808C
:0E39E80095F0403EEC9496ED6480948040345F
:0A39F600900247E014900247F090A1
:0D3A00000247E0FEBE02069002477403F08C
:0E3A0D00900245E0FEA3E0FF900247E0FF902C
:0D3A1B000229EEF090022AEFF07582800281
:023A2800264D29
:0E3A2A00C3746A9A747F8BF063F08095F0E4A9
:073A380033FA6003023AB00B
:0E3A3F00C3EC946BED6480947F406674959C9C
:0E3A4D0074808DF063F08095F0405890024533
:0D3A5B00E0FBA3E0FEBB0105BE0002800DF4
:053A68001BBBFF011E65
:083A6D00900245EBF0A3EEF01E
:0E3A7500900245E0FBA3E0FE900247E0FE90C9
:0D3A83000229EBF090022AEEF0758280120D
:0C3A9000264D900245E0FBA3E0FE0B90E9
:0A3A9C000247E0FE900229EBF090D3
:0A3AA600022AEEF075822002264D80
:063AB000EA6003023B3353
:0E3AB600C3746A9C747F8DF063F08095F040BD
:0E3AC4006E900245E0FBA3E0FEBB0105BE00D4
:033AD20002800D62
:053AD5001BBBFF011EF8
:083ADA00900245EBF0A3EEF0B1
:0E3AE200900247E02401F0900247E0FBBB7B1E
:073AF00006900247747AF012
:0E3AF700900245E0FBA3E0FE900247E0FE9047
:0D3B05000229EBF090022AEEF0758280128A
:0C3B1200264D900245E0FBA3E0FE0B9066
:0B3B1E000247E0FE1E900229EBF09031
:0A3B2900022AEEF075822002264DFC
:063B3300EA6003023BB44E
:0E3B3900C3EC9496ED64809480407090024539
:0D3B4700E0FAA3E0FBBA0105BB0002800D0F
:053B54001ABAFF011B7D
:083B5900900245EAF0A3EBF035
:0A3B6100900247E014900247F09034
:0D3B6B000247E0FABA02069002477403F028
:0E3B7800900245E0FAA3E0FB900247E0FB90CC
:0D3B86000229EAF090022AEBF0758280120D
:0C3B9300264D900245E0FAA3E0FB0A90EA
:0B3B9F000247E004FB900229EAF090CE
:0A3BAA00022AEBF075822002264D7E
:0E3BB400C3EC946BED6480947F406474959C28
:0E3BC20074808DF063F08095F04056900245BF
:0D3BD000E0FAA3E0FBBA0605BB0002800B83
:0B3BDD0090024574012AF0E43BA3F0C5
:0E3BE800900245E0FAA3E0FB900247E0FB905C
:0D3BF6000229EAF090022AEBF0758280129D
:0C3C0300264D900245E0FAA3E0FB1A9069
:0A3C0F000247E0FB900229EAF09062
:0A3C1900022AEBF075822002264D0E
:0E3C2300C3746A9C747F8DF063F08095F0404E
:0E3C31006B900245E0FAA3E0FBBA0605BB006B
:033C3F0002800BF5
:0B3C420090024574012AF0E43BA3F05F
:0E3C4D00900247E02401F0900247E0FABA7BB3
:073C5B0006900247747AF0A5
:0E3C6200900245E0FAA3E0FB900247E0FB90E1
:0D3C70000229EAF090022AEBF07582801222
:0C3C7D00264D900245E0FAA3E0FB1A90EF
:0A3C89000247E0FB900229EAF090E8
:0A3C9300022AEBF075822002264D94
:0E3C9D00900245E0FAA3E0FBBA0605BB000268
:023CAB00800B8C
:0B3CAD0090024574012AF0E43BA3F0F4
:0A3CB800900247E014900247F090DC
:0D3CC2000247E0FABA02069002477403F0D0
:0E3CCF00900245E0FAA3E0FB900247E0FB9074
:0D3CDD000229EAF090022AEBF075828012B5
:0C3CEA00264D900245E0FAA3E0FB1A9082
:0A3CF6000247E0FB900229EAF0907B
:0A3D0000022AEBF075822002264D26
:0E3D0A00C0E0C082C083C0029003D4E0FA7013
:0E3D18002A900380E0FA7013C2929003D274D6
:0D3D260001F0E4A3F09003807401F0801B15
:0E3D3300D2929003D2E4F0A3F0900380E4F06B
:023D4100800BF5
:0B3D43009003D57401F09003D4E4F06D
:093D4E00D002D083D082D0E03213
:0E4EE600000000000000005F00000007000751
:0E4EF40000147F147F14242A7F2A122313082F
:0E4F0200646236495522500005030000001C71
:0E4F10002241000041221C00082A1C2A080829
:0E4F1E00083E08080050300000080808080887
:0E4F2C00003030000020100804023E514945BC
:0E4F3A003E00427F4000426151494621414500
:0E4F48004B311814127F1027454545393C4A5D
:0E4F56004949300171090503364949493606BB
:0E4F64004949291E003636000000563600006E
:0E4F72000008142241141414141441221408CF
:0E4F8000000201510906324979413E7E1111AD
:0E4F8E00117E7F494949363E414141227F4113
:0E4F9C0041221C7F494949417F090901013E1C
:0E4FAA00414151327F0808087F00417F4100DD
:0E4FB8002040413F017F081422417F404040CD
:0E4FC600407F0204027F7F0408107F3E4141BD
:0E4FD400413E7F090909063E4151215E7F09D9
:0E4FE200192946464949493101017F01013F25
:0E4FF0004040403F1F2040201F7F2018207FA0
:0E4FFE006314081463030478040361514945E9
:0E500C004300007F4141020408102041417F13
:0E501A0000000402010204404040404000013A
:0E50280002040020545454787F484444383821
:0E50360044444420384444487F3854545418AD
:0E504400087E090102081454543C7F0804043D
:0E5052007800447D40002040443D00007F1067
:0E506000284400417F40007C041804787C083E
:0E506E0004047838444444387C1414140808B0
:0E507C001414187C7C08040408485454542072
:0E508A00043F4440203C4040207C1C2040203D
:0E5098001C3C4030403C44281028440C505032
:0E50A600503C4464544C440008364100000065
:0E50B4007F0000004136080008082A1C08088A
:0E50C2001C2A0808003A3E3A00FF00000000D9
:0750D00000FF0000000000DA
:0E50D70045564552595448494E472042524FC3
:0650E5004B45210A0D00FD
:0251430000006A
:015145000069
:015146000068
:063D5700E582900381F0FB
:0C3D5D003099FD900381E0F599C2992295
:053D690010980280FB30
:053D6E00AA998A8222DF
:063D73009003837461F06F
:0E3D7900900383E0FAF582C002124085E582D5
:073D8700D002600DBA31000B
:0A3D8E004008EA24C94003023E5534
:0E3D9800123D69AB82900383EBF07C00C00308
:0A3DA600C00474EBC0E07450C0E0EC
:0E3DB0007480C0E01243D0E58124FBF581123F
:083DBE003D69E582900382F0EB
:0A3DC600900382E0FBBB0D02804E6B
:0C3DD000BB08407C00C003C00474EBC0C2
:0C3DDC00E07450C0E07480C0E01243D0DE
:0E3DE800E58124FBF581123D69AB82900383D7
:0C3DF600EBF07C00C003C00474EBC0E0E4
:0C3E02007450C0E07480C0E01243D0E5B2
:053E0E008124FBF58199
:0B3E1300123D69E582900382F080A858
:0E3E1E00900383E0FBF582C003124085E5822D
:073E2C00D003600DBB310063
:0A3E33004008EB24C94003023D796A
:0A3E3D0074EEC0E07450C0E0748021
:0E3E4700C0E01243D0158115811581023D792E
:033E55008A82223C
:0A3E58007413C0E07451C0E07480E0
:0C3E6200C0E01243D01581158115817459
:0A3E6E0018C0E07451C0E07480C079
:0B3E7800E01243D01581158115812256
:0E3E8300AAF0AB83E582900384F0A3EBF0A3DA
:0E3E9100EAF0123E58900384E0C0E0A3E0C0C7
:0E3E9F00E0A3E0C0E01243D01581158115812B
:0A3EAD00741FC0E07451C0E074807F
:0B3EB700C0E01243D015811581158179
:093EC200123D69AA82BA0DF82232
:0350EB002563003A
:0E50EE000A0D506C6561736520656E74657205
:0E50FC0020612076616C69642063686F6963CF
:09510A006520312D362E0A0D003E
:055113001B5B324A00A5
:075118001B5B303B30480037
:0E511F00507265737320656E74657220746F34
:0B512D0020717569742E2E2E0A0D00F3
:06003500E478FFF6D8FD9F
:0E3ECB00AA83E58290038BF0A3EAF0900387B0
:0E3ED900E0FAA3E0FBA3E0FC90038AE0FD7E8C
:013EE70010CA
:0E3EE8001EEE2AFFE43BF88C01C002C003C0AE
:0C3EF6000490038BE0FAA3E0FB8D0B7539
:063F02000C00900395E5A0
:0A3F08000BF0A3E50CF08A828B8316
:0D3F1200C004C005C006C007C000C00112F9
:0E3F1F0041C3AA82AB83D001D000D007D006E8
:0E3F2D00D005D00474302AFA8F82888389F080
:0E3F3B001240A28F82888389F0124C6FFAC365
:0E3F490074B98AF063F08095F0E433D004D0B0
:0E3F570003D002601BC0058F82888389F012A0
:0E3F65004C6FFD74072DFD8F82888389F0124A
:043F730040A2D00593
:0C3F770090038BE0FFA3E0F890039EE5B0
:0A3F83000BF0A3E50CF08F82888399
:0E3F8D00C002C003C004C005C0061242E9E530
:0E3F9B00828583F0D006D005D004D003D0027A
:0E3FA90090038BF0A3E5F0F090038BE0FFA3F4
:0A3FB700E0F8BF0005B80002800327
:033FC100023EE8D5
:023FC4007D007E
:0A3FC6008D070DEF2AF50DE43BF521
:0A3FD0000E8C0F8E070EEF2AFFE49F
:0E3FDA003BF88C018F82888389F0124C6FFFB8
:073FE800850D82850E838523
:083FEF000FF01240A2BE100009
:0E3FF70040CDED2AFAE43BFB8A828B838CF0EE
:04400500E40240A2EF
:0E400900AA83E582900391F0A3EAF090039160
:0E401700E0FAA3E0FB30E737900390E0FCBC3A
:0E4025000A2F90038DE0FCA3E0FDA3E0FE8CCB
:0E403300828D838EF0742D1240A290038D7446
:0E404100012CF0E43DA3F0A3EEF0900391C338
:07404F00E49AF0E49BA3F0EA
:0E405600900391E0FAA3E0FB90038DE0FCA341
:0E406400E0FDA3E0FE900390E0FF900387ECE8
:0E407200F0A3EDF0A3EEF090038AEFF08A8247
:054080008B83023ECB22
:080013007904E94400601B7A46
:05001B00019051437843
:03002000D275A0F6
:0A00230003E493F2A308B8000205FD
:08002D00A0D9F4DAF275A0FF7E
:0E408500E582900393F0900393E0FABA3000C6
:0B4093004009EA24C6400475820122A7
:04409E007582002205
:0E40A20020F71030F6118883A88220F507F66B
:0540B000A883758300E8
:0140B50022E8
:0340B600F280F79E
:0240B900F022F3
:0540BB00C0108581101A
:0B40C000E51024FDF8868318868218A6
:0E40CB00E493A324DB600C242560051241A8B9
:0240D90080F075
:0340DB000241C0DF
:0940DE00D2D5E493A3C083C08293
:0340E700B473149B
:0940EA0086F018868318868218FE
:0B40F300124C6F6053A31241A880F52F
:0A40FE00B46307E6181241A88043DE
:0E410800B46417E630E74618E6F42401F60822
:0C411600E6F43400F6742D1241A880334A
:0A412200B4782D868318868218E415
:0B412C00124199E583124198E58312CF
:0A4137004199E582124198E58212D9
:0A414100419930D50574301241A8F1
:07414B00D082D0830240CBBB
:03415200B475F64B
:06415500E6FA18E6F91875
:0D415B007C107D27124183FF7CE87D03125C
:0E4168004183C4F5837C647D00124183428351
:0D417600E975F00A84C445F0F582EF80A9D8
:024183007B00BF
:0E4185000BC3E99CF9EA9DFA50F61BE92CF9F0
:05419300EA3DFAEB22F9
:01419800C462
:07419900540F700320D51F35
:0841A000C2D52490D43440D4B0
:0E41A800C083C082C0F0F582E8C0E0123D572F
:0941B600D0E0F8D0F0D082D083F3
:0141BF0022DD
:0341C000D01022FA
:0E41C300AA83E582900397F0A3EAF090039997
:0C41D100E4F0900397E0FAA3E0FB7C0010
:0E41DD00900395E0FDA3E0FE235401FF703730
:0E41EB00EECD25E0CD33FE900395EDF0A3EE72
:0E41F900F0900395E0FDA3E0FEC3EA9DEB9E6F
:0E4207005011EEC313CD13CDFE900395EDF0D4
:05421500A3EEF080089B
:08421A000C900399ECF080BB4D
:05422200900399E0FA91
:0E422700900397E0FBA3E0FC900395E0FDA35D
:0E423500E0FEC3EB9DEC9E400B900397EBC3A5
:064243009DF0EC9EA3F0CB
:0E424900900395E0FBA3E0FCC313CB13CBFC6A
:0E425700900395EBF0A3ECF08A031AEB70C213
:0C426500900397E0FAA3E08A82F5832220
:08003B007800E84400600A7936
:030043000075A0A5
:0600460000E4F309D8FC00
:08004C0078D2E84403600C794E
:0B00540004900000E4F0A3D8FCD9FAEF
:0E427100AA83E58290039CF0A3EAF090039CE0
:0E427F00E0FAA3E0FB30E709C3E49AFCE49BFD
:03428D00FD8004AD
:044290008A048B050C
:0E4294008C028D0390039AE0FCA3E0FD33E45E
:0D42A20033FE6009C3E49CFFE49DF8800436
:0442AF008C078D00EB
:0E42B30090039EEFF0A3E8F08A828B83C00692
:0E42C1001242E9AA82AB83D00690039CE0FC77
:0E42CF00A3E0FD33E4336E600CC3E49AFCE41C
:0742DD009BFD8C828D832202
:0542E4008A828B832299
:0E42E900AA83E5829003A0F0A3EAF09003A25E
:0E42F700E4F0A3F090039EE0FAA3E0FB7C103D
:0C4305009003A0E0FDA3E0FE339200EE68
:0E431100CD25E0CD33FE9003A0EDF0A3EEF03D
:0E431F009003A2E0FDA3E0FECD25E0CD33FE2D
:0C432D009003A2EDF0A3EEF0300012901F
:0E43390003A2E0FDA3E0FE9003A274014DF08C
:03434700A3EEF0F2
:0E434A009003A2E0FDA3E0FEC3ED9AEE9B40BF
:0D4358001D9003A2EDC39AF0EE9BA3F09020
:0E43650003A0E0FDA3E0FE9003A074014DF064
:03437300A3EEF0C6
:0E437600DC8D9003A0E0FAA3E08A82F583229A
:08438400C010858110AA82120D
:05438C003D57D0102296
:0E439100AAF0AB83E5829003A5F0A3EBF0A3A6
:0E439F00EAF09003A5E0FAA3E0FBA3E0FC9097
:0E43AD0003A4E0FD9003B8E4F0A3F0A3F090A9
:0E43BB0003BBEAF0A3EBF0A3ECF09003BEED21
:0743C900F09043840244E977
:0643D000C010858110E51C
:0C43D6001024FBFA9003B8E4F0A3F0A35D
:0C43E200F0E51024FBF89003BBE6F008A7
:0D43EE00A3E6F008A3E6F09003BEEAF0900D
:0A43FB0043841244E9AA82AB83D088
:02440500102283
:0C440700E5829003B4F09003B4E0FA905A
:0E44130003AAE0C0E0A3E0C0E0A3E0C0E074B4
:0844210035C0E07444C0E090D6
:0C44290003A8E0C0E0A3E0C0E08A82220B
:0E4435001581158115819003B2E0FAA3E0FB1A
:0C4443009003B274012AF0E43BA3F022C5
:0E444F00E5829003B5F09003B5E0FA74302AD0
:0C445D00FA24C6500A74072AFA30010342
:03446900430220EB
:05446C008A82024407F2
:0E447100E5829003B6F09003B6E0FAC4540F53
:0E447F00FBF582C00212444FD00253020F8A96
:04448D008202444F14
:0E449100E5829003B7F09003ADE0FAA3E0FBE4
:0E449F00A3E0FCA3E0FD9003B1E0FE9003B7A4
:0444AD00E0FF782094
:0E44B100EE2EFEED235401F94206EA2AFAEB44
:0E44BF0033FBEC33FCED33FDC3EE9F4007EE04
:0644CD00C39FFE43020143
:0E44D300D8DC9003ADEAF0A3EBF0A3ECF0A36D
:0844E100EDF09003B1EEF022B2
:0E44E900AA83E5829003BFF0A3EAF09003BF20
:0E44F700E0FAA3E0FB9003A8EAF0A3EBF0903C
:0E45050003B8E0FAA3E0FBA3E0FC9003AAEAEF
:0E451300F0A3EBF0A3ECF09003B2E4F0A3F001
:0E4521009003BBE0FAA3E0FBA3E0FC8A828BD0
:0E452F00838CF0124C6FFD9003BB74012AF0D8
:0D453D00E43BA3F0A3ECF0ED7003024C1082
:05454A00BD2502800305
:03454F00024C0813
:05455200C202C203C219
:0445570004C205C2D3
:04455B0006C207C2CB
:04455F0008C20990F5
:0945630003C1E4F09003C2F090E2
:0E456C0003C374FFF09003BBE0FAA3E0FBA3CF
:02457A00E0FC63
:0E457C008A828B838CF0124C6FFEA3AA82AB56
:0D458A00839003BBEAF0A3EBF0A3ECF090EC
:0D45970003C5EEF0BE25088E821244070217
:0245A4004521AF
:0545A6008E07BF30008C
:0E45AB0040498E07EF24C640429003C3E0FF54
:0E45B900BFFF29C002C003C0049003C2E0FA95
:0E45C70075F00AA4FAEE24D09003C22AF090F8
:0D45D50003C2E0FAD004D003D002709BD2E4
:0345E200038097BC
:0E45E500EF75F00AA4FFEE24D09003C32FF070
:0345F30002457C02
:0E45F6009003C5E0FEBE2E089003C3E4F00261
:02460400457CF3
:0E4606008E82C002C003C004C006124C8BE5B9
:0C4614008224FF9201D006D004D003D015
:0B462000023001079003C574DF5EF05C
:0A462B009003C5E0FEBE200280559A
:05463500BE2B02804BCA
:05463A00BE2D028041CD
:05463F00BE4202804BA9
:05464400BE430280509E
:06464900BE440302487D9F
:06464F00BE460302489F75
:06465500BE490302487D8E
:05465B00BE4C0280349A
:06466000BE4F0302488773
:06466600BE50030247DF15
:05466C00BE5302804274
:06467100BE550302488F54
:06467700BE580302489743
:03467D000248A34D
:05468000D20202457C9E
:05468500D20402457C97
:05468A00D20502457C91
:05468F00D20702457C8A
:05469400D20802457C84
:0E4699009003BEE0FA24FEF89003BEF0860205
:0C46A700088603188A821244070248AFFC
:0E46B3009003BEE0FA24FDF89003BEF08602EC
:0E46C10008860308860418189003ADEAF0A3DB
:0E46CF00EBF0A3ECF09003ADE0FAA3E0FBA348
:0E46DD00E0FC8A828B838CF0124C1CAA82AB0C
:0E46EB00839003C3E0FBBBFF059003C3EAF01E
:0C46F9002002389003C2E0FBC3EA9B5093
:0D4705002E9003C2EBC39AF09003C2E0FBBC
:0D4712008B041B9003C2EBF0BC0002801072
:0E471F00758220C002C003124407D003D002EE
:02472D0080E327
:05472F009003C2EBF055
:054734009003C3E0FD4D
:0E473900C0029003ADE0FCA3E0FFA3E0FA8C09
:0E474700828F838AF0124C6FD00260538D0473
:0E4755001DC374808CF063F08095F05044C05A
:0A476300029003ADE0F511A3E0F5AC
:08476D0012A3E0F5137401250D
:0747750011FBE43512FAAC60
:0C477C00139003ADEBF0A3EAF0A3ECF007
:074788008511828512838573
:0C478F0013F0124C6FFAF582C002C00556
:0B479B00124407D005D002D00280932A
:0647A6002002030248AFEF
:0D47AC009003C2E0FBC3EA9B40030248AF4C
:0C47B9009003C2EBC39AF09003C2E0FA38
:0E47C5008A031A9003C2EAF0BB00030248AA5E
:0C47D300758220C002124407D00280E66C
:0E47DF009003BEE0FB24FDF89003BEF08603BD
:0E47ED0008860408860718189003ADEBF0A3A9
:0E47FB00ECF0A3EFF09003AFE0FB247F50083A
:084809009003C57443F0802008
:0D481100EB249F50089003C57450F08013F5
:0D481E00EB24BF50089003C57449F08006DC
:06482B009003C57458F073
:0E4831009003C5E0FBF582C003124407D003DC
:0E483F0075823AC003124407D003758230C060
:0E484D0003124407D003758278C0031244079B
:07485B00D003BB4902800FEE
:05486200BB5002800ABA
:0A4867009003AEE0FBF582124471ED
:0C4871009003ADE0FBF582124471803230
:0A487D00D2069003C1740AF08028EF
:084887009003C17408F08020C9
:08488F009003C1740AF08018C7
:084897009003C17410F08010C1
:04489F00D209800CAE
:0748A3008E8212440780051C
:0548AA009003C2EAF0DA
:0C48AF0030096B9003BEE0FA24FCF89086
:0E48BB0003BEF08602088603088604088606FF
:0E48C9001818189003ADEAF0A3EBF0A3ECF082
:0B48D700A3EEF09003AD7438F0A37462
:0648E20051F0A37480F008
:0E48E8009003ADE0FBA3E0FCA3E0FD74012B08
:0E48F600FEE43CFF8D029003ADEEF0A3EFF068
:0E490400A3EAF08B828C838DF0124C6FFA7058
:044912000302452136
:074916008A8212440780CBE6
:0B491D009003C1E0FABA00030245213C
:084928009003CC74CBF0A374E2
:0649300003F030074C907B
:0E49360003BEE0FA14F89003BEF08602EA33E6
:0E49440095E0FBFCFE9003ADEAF0A3EBF0A3C0
:0B495200ECF0A3EEF03006030249F782
:0E495D009003ADE0FAA3E0FBA3E0FCA3E0FEB4
:0E496B007B007C007E009003ADEAF0A3EBF031
:08497900A3ECF0A3EEF0807640
:0C49810030082A9003BEE0FA24FCF890F5
:0E498D0003BEF086020886030886040886062C
:0E499B001818189003ADEAF0A3EBF0A3ECF0AF
:0549A900A3EEF08049BF
:0E49AE009003BEE0FA24FEF89003BEF08602ED
:0E49BC0008860318EB3395E0FCFE9003ADEA8D
:0C49CA00F0A3EBF0A3ECF0A3EEF020064D
:0E49D600209003ADE0FAA3E0FBA3E0FCA3E019
:0E49E400FE7C007E009003ADEAF0A3EBF0A392
:0549F200ECF0A3EEF063
:0C49F70030063E9003ADE0FAA3E0FBA305
:0E4A0300E0FCA3E0FE30E72B9003ADE0FAA349
:0E4A1100E0FBA3E0FCA3E0FEC3E49AFAE49B02
:0E4A1F00FBE49CFCE49EFE9003ADEAF0A3EBEA
:094A2D00F0A3ECF0A3EEF080020E
:024A3600C206B6
:084A3800D20A9003C1E0FC75F5
:034A400014CB751F
:044A430015037D00DA
:0E4A47009003B1E4F08C82C004C005124491CB
:0C4A5500D005D004200A32C0049003B148
:0A4A6100E0FFC4FF85148285158371
:0A4A6B00E0FA4207851482851583E6
:0A4A7500EFF0151474FFB5140215DC
:014A7F001521
:084A80009003CCE514F0A3E55E
:064A880015F0D004800CC3
:094A8E009003B1E0FF851482855C
:034A97001583F094
:094A9A000D9003C4EDF0B20A9086
:0E4AA30003ADE0FFA3E0FAA3E0FEA3E0FBEF0B
:0C4AB1004A4E4B70919003CCE514F0A32A
:094ABD00E515F09003C4EDF09042
:0C4AC60003C2E0FA70069003C27401F015
:0A4AD20020032720022474012DFAAE
:054ADC009003C2E0FBA5
:0D4AE100C3EA9B5011758220C002C0031271
:094AEE004407D003D0021B80EA4A
:054AF7009003C2EBF08A
:0A4AFC0030061275822D1244079057
:0B4B060003C2E0FA149003C2F0802FFD
:0C4B11009003C4E0FA60283004127582A2
:0B4B1D002B1244079003C2E0FA149032
:054B280003C2F0801340
:0A4B2D003005107582201244079035
:094B370003C2E0FA149003C2F07D
:094B400020022F9003C4E0FA905A
:044B490003C2E0FBC8
:0E4B4D008B041B9003C2EBF0C3EA9C50363081
:064B5B0003047C3080021F
:024B61007C20B6
:0E4B63008C82C002C003124407D003D002802F
:014B7100DB68
:0E4B72009003C2E0FA9003C4E0FCC39A50091D
:094B80009003C2EAC39CF0800C12
:074B89009003C2E4F0800577
:054B90009003C2EBF0F0
